:020000040800F2
:1000000000280020891E000821030008230300089F
:10001000250300082703000829030008000000004A
:100020000000000000000000000000002B0300089A
:100030002D030008000000002F0300083103000812
:10004000D11E0008D11E0008D11E0008D11E0008D4
:10005000D11E0008D11E0008D11E0008D11E0008C4
:10006000D11E0008D11E0008D11E0008D11E0008B4
:10007000D11E0008D11E0008D11E0008D11E0008A4
:10008000D11E0008D11E0008D11E0008D11E000894
:10009000D11E0008D11E0008D11E0008D11E000884
:1000A000D11E00083D030008D11E000851030008BE
:1000B000D11E00086503000800000000D11E0008E2
:1000C000D11E00080000000000000000D11E000842
:1000D00000000000D11E0008D11E00080000000032
:1000E00079030008D11E0008D11E0008000000009E
:1000F0000000000000000000000000000000000000
:0C01000000000000000000005FF808F1A3
:10010C0010B5054C237833B9044B13B10448AFF345
:10011C0000800123237010BD1C0000200000000093
:10012C002C1F000808B5034B1BB103490348AFF360
:10013C00008008BD00000000200000202C1F0008DB
:10014C0010B590B02822002106A80E4B9847002429
:10015C0001940294039404940594022306930123BE
:10016C000A9310230B9306A8074B98470F23019370
:10017C000294039404940594214601A8034B9847D8
:10018C0010B010BD1D1F00087511000801160008E5
:10019C0008B50D4B98470D4B98470D4B98470D4B99
:1001AC0098470D4B984701214FF400500B4CA0473A
:1001BC0001214FF48040A047094B98470021094882
:1001CC00094B9847FEE700BFF51000084D010008E9
:1001DC00FD010008B51A0008791C0008ED020008A2
:1001EC00491D00089C000020D10D0008704700003C
:1001FC002DE9F04188B000240494059406940794EA
:10020C002E4B9A6942F010029A619A6902F0100220
:10021C000192019A9A6942F004029A619A6902F079
:10022C0004020292029A9A6942F008029A619B694E
:10023C0003F008030393039B214D224640F6FF7104
:10024C002846204FB847204E22464FF47041304686
:10025C00B84740F6FF7304930127059706944FF0B7
:10026C000208CDF81C8004A92846184DA8474FF465
:10027C0080630493164B0593069404A93046A84753
:10028C004FF400630493134B0593069404A9304672
:10029C00A8474FF47043049305970697CDF81C803C
:1002AC0004A93046A8472246214628200A4B9847E5
:1002BC0028200A4B984708B0BDE8F0810010024096
:1002CC000010014099190008000C01407917000832
:1002DC000000311000002110FD1900086D1A0008F3
:1002EC00B0F5804F06D00CD8B0F5805F02D0B0F5D9
:1002FC00005F09D108B50A4601460448044B9847EB
:10030C0008BDB0F5004FF5D0704700BF000C0140A0
:10031C00991900087047FEE7FEE7FEE7FEE7704715
:10032C007047704708B5014B984708BD2511000868
:10033C0008B50248024B984708BD00BF5400002086
:10034C00B507000808B50248024B984708BD00BF26
:10035C0054000020B507000808B50248024B984726
:10036C0008BD00BF9C000020B507000810B54FF475
:10037C008060034CA0474FF40060A04710BD00BF45
:10038C00B919000810B50446B0F5006F03D0B4F5E8
:10039C00806F0DD010BD4FF480512148214B9847F0
:1003AC000023214A1360214A1360214A1360EEE7AF
:1003BC00204C2168204BA3FB0102D20802EB8202E5
:1003CC00A1EB42021D49CA702068A3FB0020C008A3
:1003DC00A3FB00C2D20802EB8202A0EB42028A709D
:1003EC002068174AA2FB00204009A3FB00C2D208D8
:1003FC0002EB8202A0EB42024A7022681148A0FB79
:10040C0002029209A3FB0203DB0803EB8303A2EBBA
:10041C0043030B700C4A137883F001031370B9E794
:10042C00000C0140A5190008E8000020F000002095
:10043C00EC0000203C000020CDCCCCCCE400002013
:10044C001F85EB51D34D62104D000020174B1B78CC
:10045C0053B9174B5A6B174B1A60174B00221A8063
:10046C00124B01221A707047104B1B78DBB2012B18
:10047C0000D070470E4B5B6B104A13600E4B1B8801
:10048C009BB203EB8301C3EB011312681344094ABB
:10049C0012689B1A0A4A136012680A4BB3FBF2F3F8
:1004AC00094A1360014B00221A70E2E74C0000204D
:1004BC00002C0140400000203A00002044000020A5
:1004CC004800002000127A003C000020094B1B78E9
:1004DC005BB9026842F6DF61516302680021516228
:1004EC0083F00103034A13707047026840F69F7152
:1004FC005163F2E73800002082B00E4B9A6942F04B
:10050C0001029A619A6902F001020092009ADA697A
:10051C0042F08052DA61DB6903F080530193019B56
:10052C00054A536823F0E06343F08063536002B0E4
:10053C00704700BF001002400000014070B4036A15
:10054C0023F001030362036A4668826922F0730296
:10055C000C6844EA020523F002028B6813430D4C2D
:10056C00A04209D00B4CA0420DD0466085614A6870
:10057C004263036270BC704723F00803CA681343DC
:10058C0023F00403EEE726F440764A6932438E6981
:10059C001643EAE7002C014030B4036A23F480735D
:1005AC000362036A4568C26922F073020C68224335
:1005BC0023F400738C6843EA04230F4CA04209D047
:1005CC000D4CA0420ED04560C2614A68C263036202
:1005DC0030BC704723F40063CC6843EA042323F453
:1005EC008063EDE725F440554C6945EA04158C69A8
:1005FC0045EA0415E7E700BF002C014030B4036A5C
:10060C0023F480530362036A4468C26922F4E6420D
:10061C000D6842EA052223F400538D6843EA053342
:10062C00074DA84206D04460C2614A680264036266
:10063C0030BC704724F480444D6944EA8514F2E7D9
:10064C00002C014010B4036A046A24F00104046213
:10065C00846924F0F00C4CEA021223F00A030B43D9
:10066C008261036210BC704730B4046A24F0100439
:10067C0004628469056A24F4407C4CEA022C2CF454
:10068C00704C1B039BB243EA0C0325F0A005090137
:10069C0001F0A00129438361016230BC704710B4A2
:1006AC00046A24F0100404628469036A24F4704C14
:1006BC004CEA023223F0A00343EA01138261036285
:1006CC0010BC704730B4046A24F480740462C469AA
:1006DC00056A24F0030C4CEA020C2CF0F00C1B0104
:1006EC00DBB243EA0C0325F40075090201F4007136
:1006FC002943C361016230BC704730B4046A24F4EE
:10070C0080540462C469056A24F4407C4CEA022CCF
:10071C002CF4704C1B039BB243EA0C0325F40055DC
:10072C00090301F400512943C361016230BC7047D5
:10073C00836823F070030B4343F007038360704717
:10074C0090F83D30DBB2012B23D1022380F83D30F1
:10075C000268D36843F00103D36003680F4A9342E5
:10076C000CD0B3F1804F09D0A2F59432934205D04E
:10077C001A6842F001021A60002070479A6802F071
:10078C000702062A07D01A6842F001021A600020FC
:10079C007047012070470020704700BF002C0140BB
:1007AC00704770477047704710B5044603681A6964
:1007BC0012F0020F11D0DA6812F0020F0DD06FF0A8
:1007CC0002021A610123037703689B6913F0030F7C
:1007DC0070D0544B98470023237723681A6912F082
:1007EC00040F12D0DA6812F0040F0ED06FF004026E
:1007FC001A610223237723689B6913F4407F5FD02F
:10080C002046484B98470023237723681A6912F037
:10081C00080F12D0DA6812F0080F0ED06FF0080231
:10082C001A61042323772368DB6913F0030F4ED07E
:10083C0020463C4B98470023237723681A6912F013
:10084C00100F12D0DA6812F0100F0ED06FF01002E9
:10085C001A61082323772368DB6913F4407F3DD0AA
:10086C002046304B98470023237723681A6912F0EF
:10087C00010F03D0DA6812F0010F36D123681A6920
:10088C0012F0800F03D0DA6812F0800F34D1236895
:10089C001A6912F0400F03D0DA6812F0400F32D10F
:1008AC0023681A6912F0200F03D0DA6812F0200FB7
:1008BC0030D110BD1C4B984720461C4B98478AE7FB
:1008CC002046194B98472046184B98479BE72046E3
:1008DC00154B98472046154B9847ACE72046124BD2
:1008EC0098472046114B9847BDE76FF001021A61FB
:1008FC0020460F4B9847C1E76FF080021A612046E3
:10090C000C4B9847C3E76FF040021A6120460A4B24
:10091C009847C5E76FF020021A612046074B9847AD
:10092C00C7E700BF59040008D9040008B107000844
:10093C00791D00089F100008B30700089D100008DF
:10094C000368174A904206D0B0F1804F03D0A2F54D
:10095C009432904203D123F070034A681343104A37
:10096C00904206D0B0F1804F03D0A2F59432904261
:10097C0003D123F44073CA68134323F080034A69FC
:10098C00134303608B68C3620B688362044B984209
:10099C0002D00123436170470B690363F9E700BF81
:1009AC00002C014040B310B5044690F83D30F3B133
:1009BC00022384F83D30214651F8040B0F4B984725
:1009CC00012384F8463084F83E3084F83F3084F8B4
:1009DC00403084F8413084F8423084F8433084F855
:1009EC00443084F8453084F83D30002010BD80F848
:1009FC003C30034B9847DBE7012070474D0900085A
:100A0C00711B000840B310B5044690F83D30F3B1AB
:100A1C00022384F83D30214651F8040B0F4B9847C4
:100A2C00012384F8463084F83E3084F83F3084F853
:100A3C00403084F8413084F8423084F8433084F8F4
:100A4C00443084F8453084F83D30002010BD80F8E7
:100A5C003C30034B9847DBE7012070474D090008F9
:100A6C00AD07000840B310B5044690F83D30F3B123
:100A7C00022384F83D30214651F8040B0F4B984764
:100A8C00012384F8463084F83E3084F83F3084F8F3
:100A9C00403084F8413084F8423084F8433084F894
:100AAC00443084F8453084F83D30002010BD80F887
:100ABC003C30034B9847DBE7012070474D09000899
:100ACC00AF07000830B4036A23F010030362036A13
:100ADC004468826922F4E6420D6842EA052223F05A
:100AEC0020038D6843EA05130E4DA84209D00D4D25
:100AFC00A8420ED0446082614A688263036230BCB3
:100B0C00704723F08003CD6843EA051323F04003BC
:100B1C00EDE724F440644D6944EA85048D6944EAA8
:100B2C008504E7E7002C014090F83C30012B22D0E3
:100B3C0010B50446012380F83C300C2A0BD8DFE8B2
:100B4C0002F0070A0A0A0E0A0A0A120A0A0A160010
:100B5C0000680A4B9847002084F83C0010BD0068E0
:100B6C00074B9847F7E70068064B9847F3E7006890
:100B7C00054B9847EFE70220704700BF4905000876
:100B8C00D10A0008A50500080906000870B4046A1B
:100B9C0024F0010404628469056A0F4EB04209D046
:100BAC00B0F1804F06D0A6F59436B04202D044F096
:100BBC00010202E024F00304224322F0F0021B01A4
:100BCC00DBB2134325F00A0201F00A0111438361E1
:100BDC00016270BC704700BF002C014090F83C30A3
:100BEC00012B53D070B504460D46012380F83C30E0
:100BFC00C2B1042A27D0082A37D0CB684A680968C2
:100C0C000068234EB0472268D36923F44063D36154
:100C1C002268D369A96843EA0123D361002084F8D0
:100C2C003C0070BDCB684A6809680068194EB04733
:100C3C002268936923F00C03936122689369A96875
:100C4C000B439361EAE7CB684A6809680068124E67
:100C5C00B0472268936923F44063936122689369D7
:100C6C00A96843EA01239361D8E7CB684A6809680D
:100C7C0000680A4EB0472268D36923F00C03D36195
:100C8C002268D369A9680B43D361C7E70220704778
:100C9C0007070008990B000875060008D106000824
:100CAC0010B4846824F47F4C42EA03220A4342EADB
:100CBC000C02826010BC704738B590F83C30012BA8
:100CCC0065D00446012380F83C30022380F83D3087
:100CDC000268936823F47F4323F0770393600B68D7
:100CEC00602B40D022D8402B47D00BD9502B0ED1A3
:100CFC00CA6849680068274B984750212068264BE2
:100D0C00984704E0202B0CD008D9302B09D00123B4
:100D1C0084F83D30002084F83C0038BD0BB1102B1A
:100D2C00F5D1194620681C4B9847F0E7702B0ED074
:100D3C00B3F5005FEBD1CB684A6889680068174D42
:100D4C00A8472268936843F480439360DFE7CB683D
:100D5C004A6889680068114DA8472268936843F077
:100D6C0077039360D3E7CA68496800680C4B9847CF
:100D7C0060212068084B9847C9E7CA684968006831
:100D8C00044B984740212068034B9847BFE702204B
:100D9C00C3E700BF510600083D070008AD0C000872
:100DAC00AB06000801F01F01012303FA01FC036AE2
:100DBC0023EA0C030362036A02FA01F10B43036298
:100DCC007047000010B504460846B1B994F83E309F
:100DDC00DBB2013B18BF0123002B78D130BB0223BF
:100DEC0084F83E300C2836D8DFE800F03035353545
:100DFC004F353535553535355B00042908D0082974
:100E0C000DD094F84130DBB2013B18BF0123E3E76E
:100E1C0094F83F30DBB2013B18BF0123DCE794F8B8
:100E2C004030DBB2013B18BF0123D5E7042805D0C5
:100E3C00082807D0022384F84130D3E7022384F832
:100E4C003F30CFE7022384F84030CBE72268D368E9
:100E5C0043F00203D3600122014620681E4B9847E1
:100E6C0023681E4A934222D023681C4A934223D003
:100E7C00B3F1804F20D0A2F5943293421CD01A6863
:100E8C0042F001021A60002022E02268D36843F08D
:100E9C000403D360DFE72268D36843F00803D36010
:100EAC00D9E72268D36843F01003D360D3E75A6CB8
:100EBC0042F400425A64D7E79A6802F00702062A05
:100ECC0007D01A6842F001021A60002000E00120ED
:100EDC0010BD0020FCE700BFB10D0008002C014044
:100EEC0010B504460B4601BB90F83E00C0B263BB84
:100EFC0094F84220D2B2012840F08F80012A40F0B1
:100F0C008D8093BB022284F83E20002B3DD102221F
:100F1C0084F842200C2B4DD8DFE803F0474C4C4CA6
:100F2C00624C4C4C684C4C4C6E00042905D0082982
:100F3C0007D090F84100C0B2D9E790F83F00C0B29A
:100F4C00D5E790F84000C0B2D1E7042B05D0082BB0
:100F5C0007D094F84520D2B2CDE794F84320D2B212
:100F6C00C9E794F84420D2B2C5E7042B05D0082B6E
:100F7C0007D0022284F84120C7E7022284F83F20E0
:100F8C00C3E7022284F84020BFE7042B05D0082BCE
:100F9C0007D0022284F84520BCE7022284F84320C3
:100FAC00B8E7022284F84420B4E72168CA6842F00A
:100FBC000202CA600122194620681A4B984723681E
:100FCC00194A93421ED0B3F1804F1BD0A2F5943234
:100FDC00934217D01A6842F001021A6000201DE0FB
:100FEC002168CA6842F00402CA60E3E72168CA6853
:100FFC0042F00802CA60DDE72168CA6842F01002BC
:10100C00CA60D7E79A6802F00702062A07D01A6866
:10101C0042F001021A60002000E0012010BD002007
:10102C00FCE700BFB10D0008002C014090F83C30EB
:10103C00012B28D010B4012380F83C30022380F817
:10104C003D3003685A689C6822F0700C0A6842EACA
:10105C000C025A6003680D4A934206D0B3F1804FDC
:10106C0003D0A2F59432934204D124F080044A6850
:10107C0014439C60012380F83D30002380F83C3001
:10108C00184610BC70470220704700BF002C01406E
:10109C007047704710B504460E4B18784FF47A73AE
:1010AC00B3FBF0F30C4A1068B0FBF3F00B4B984712
:1010BC0068B90F2C01D901200AE0002221464FF01B
:1010CC00FF30074B9847074B1C60002000E00120C5
:1010DC0010BD00BF0000002008000020891A000885
:1010EC00FD1900080400002008B5074A136843F0F6
:1010FC00100313600320054B98470020044B9847BE
:10110C00044B9847002008BD00200240D919000864
:10111C00A110000805050008034A1168034B1B7851
:10112C000B441360704700BF5000002000000020EB
:10113C00014B1868704700BF5000002082B0084B6C
:10114C001B68084AA2FB03235B0A00FB03F3019311
:10115C0000BF019B5A1E0192002BF9D102B07047BF
:10116C0008000020D34D6210002800F0F58170B506
:10117C0082B00446036813F0010F2CD08F4B5B68D0
:10118C0003F00C03042B1DD08C4B5B6803F00C0399
:10119C00082B12D06368B3F5803F41D0002B55D19A
:1011AC0003F1804303F504331A6822F480321A6089
:1011BC001A6822F480221A6037E0804B5B6813F4C3
:1011CC00803FE7D07D4B1B6813F4003F03D063686E
:1011DC00002B00F0C381236813F0020F75D0774BFE
:1011EC005B6813F00C0F5FD0744B5B6803F00C035F
:1011FC00082B54D02369002B00F08A80704B0122FD
:10120C001A60704B984705466C4B1B6813F0020F25
:10121C0075D16C4B9847401B0228F5D90320A2E1ED
:10122C00664A136843F480331360636843B3654BB9
:10123C0098470546614B1B6813F4003FCBD1614BBB
:10124C009847401B6428F5D903208CE1B3F5A02FF7
:10125C0009D05A4B1A6822F480321A601A6822F4A8
:10126C0080221A60E1E703F18043A3F53C331A684E
:10127C0042F480221A601A6842F480321A60D4E771
:10128C00504B984705464D4B1B6813F4003FA2D0BA
:10129C004C4B9847401B6428F5D9032063E1474B1E
:1012AC005B6813F4803FA5D1444B1B6813F0020F0D
:1012BC0003D02369012B40F05381404A136823F07B
:1012CC00F803616943EAC1031360236813F0080F44
:1012DC0033D0A369002B5CD0394B0122C3F8802496
:1012EC00384B98470546354B5B6A13F0020F21D1FA
:1012FC00344B9847401B0228F5D9032033E12F4A81
:10130C00136823F0F803616943EAC1031360DCE757
:10131C002B4B00221A602B4B98470546274B1B681A
:10132C0013F0020FD1D0274B9847401B0228F5D958
:10133C00032018E10120244B9847236813F0040F75
:10134C0000F09A801D4BDB6913F0805F34D11B4B8E
:10135C00DA6942F08052DA61DB6903F08053019361
:10136C00019B0125194B1B6813F4807F30D0E36877
:10137C00012B41D0002B57D103F1804303F50433EB
:10138C001A6A22F001021A621A6A22F004021A6224
:10139C0037E00B4B0022C3F880240A4B98470546D4
:1013AC00064B5B6A13F0020FC7D0064B9847401BE5
:1013BC000228F5D90320D6E00025D3E7001002401F
:1013CC00000042423D110008491100080070004025
:1013DC00694A136843F480731360684B9847064658
:1013EC00654B1B6813F4807FC1D1644B9847801BFD
:1013FC006428F5D90320B6E0614A136A43F001036F
:10140C001362E36833B35D4B984706465C4B1B6A2B
:10141C0013F0020F2FD1594B9847801B41F28833A0
:10142C009842F3D903209EE0052B09D0544B1A6A3D
:10143C0022F001021A621A6A22F004021A62E0E730
:10144C004F4B1A6A42F004021A621A6A42F0010205
:10145C001A62D6E7494B98470646494B1B6A13F06C
:10146C00020F08D0454B9847801B41F288339842B5
:10147C00F3D9032077E0E5B9E369002B72D0404A39
:10148C00526802F00C02082A56D0022B17D03D4BA2
:10149C0000221A66394B98470446394B1B6813F0E7
:1014AC00007F47D0354B9847001B0228F5D9032005
:1014BC0059E0334AD36923F08053D361DCE7314BD5
:1014CC0000221A662D4B984705462D4B1B6813F0CE
:1014DC00007F06D0294B9847401B0228F5D90320E2
:1014EC0041E0236AB3F5803F1AD025494B6823F4B9
:1014FC007413226A606A024313434B60214B01222E
:10150C001A661E4B984704461D4B1B6813F0007F50
:10151C000ED11A4B9847001B0228F5D9032022E064
:10152C00174A536823F40033A1680B435360DCE77C
:10153C00002018E0002016E0012B16D0104B5B6841
:10154C0003F48031226A914211D103F47013626A60
:10155C0093420ED1002006E001207047012002E0EA
:10156C00012000E0002002B070BD0120FBE701204B
:10157C00F9E70120F7E700BF007000403D110008BB
:10158C00001002400000424286B0164B0FCB0DF10A
:10159C00180C0CE90F0040F20123ADF80430124B8B
:1015AC005B6803F00C02082A02D0104806B07047A2
:1015BC00C3F38342624412F8100C13F4803F0CD036
:1015CC00094B5B68C3F34043634413F8143C074A6C
:1015DC0002FB00F0B0FBF3F0E8E7054B03FB00F077
:1015EC00E4E700BF441F00080010024000127A001C
:1015FC0000093D00002800F0A08070B50D4604469F
:10160C00524B1B6803F007038B420BD24F4A1368F3
:10161C0023F007030B431360136803F007038B429B
:10162C0040F08D80236813F0020F17D013F0040FD5
:10163C0004D0474A536843F4E0635360236813F0C3
:10164C00080F04D0424A536843F460535360404A35
:10165C00536823F0F003A1680B435360236813F025
:10166C00010F31D06368012B20D0022B25D0384AD2
:10167C00126812F0020F64D035494A6822F0030256
:10168C0013434B60334B98470646314B5B6803F072
:10169C000C036268B3EB820F16D02E4B9847801B5D
:1016AC0041F288339842F0D9032045E0284A126869
:1016BC0012F4003FE0D101203EE0254A126812F0FE
:1016CC00007FD9D1012037E0204B1B6803F00703C2
:1016DC00AB420AD91D4A136823F007032B4313604E
:1016EC00136803F00703AB422DD1236813F0040FEA
:1016FC0006D0174A536823F4E063E1680B43536048
:10170C00236813F0080F07D0114A536823F4605371
:10171C00216943EAC10353600F4B98470C4B5B683C
:10172C00C3F303130D4AD35CD8400D4B18600D4B1B
:10173C0018680D4B9847002070BD012070470120A0
:10174C00FAE70120F8E70120F6E700BF002002408D
:10175C00001002403D11000895150008581F0008A4
:10176C000800002004000020A110000870B582B011
:10177C000024A4468BE07F4DAA4210D007D97E4DA1
:10178C00AA420CD005F58035AA4208D015E0A5F583
:10179C008015AA4203D005F57025AA4209D18A68A2
:1017AC00002A00F0BF80012A00F0B78043610824B2
:1017BC0003E0A5F58015AA42F1D0BEF1FF0F00F2AF
:1017CC00B3800646BEF1FF0F00F2B0804FEA8C02E8
:1017DC0033680F25954023EA050304FA02F21343FC
:1017EC0033604B6813F0805F4FD0644B9A6942F0C2
:1017FC0001029A619B6903F001030193019B4FEA7B
:10180C009C02951C5E4B53F825600CF003039D0065
:10181C000F23AB4026EA03065A4B984200F08C800B
:10182C0003F58063984200F0898003F58063984249
:10183C0000F080800323AB4033430232504D45F817
:10184C0022304B6813F4803F7AD04F4A136843EA36
:10185C000E0313604B6813F4003F77D04A4A536869
:10186C0043EA0E0353604B6813F4801F74D0464A4E
:10187C00936843EA0E0393604B6813F4001F71D016
:10188C00414AD36843EA0E03D3600CF1010C0A6899
:10189C0032FA0CF36CD0012303FA0CF302EA030EB8
:1018AC0033EA0202F1D14A68122A3FF664AF122AD7
:1018BC0083D801A555F822F0AB17000811190008C0
:1018CC001B1900082D190008C7170008C7170008B6
:1018DC00C7170008C7170008C7170008C717000864
:1018EC00C7170008C7170008C7170008C717000854
:1018FC00C7170008C7170008C717000815190008F4
:10190C0021190008CC6858E7CC68043455E7CC683A
:10191C00083452E7CC680C344FE7036108244CE7D9
:10192C0000244AE7042448E7061D4BE7ACF1080203
:10193C0092004DE702237EE700237CE701237AE740
:10194C00114A136823EA0E03136083E70E4A5368A7
:10195C0023EA0E03536086E70B4A936823EA0E03CF
:10196C00936089E7084AD36823EA0E03D3608CE7B7
:10197C0002B070BD000022100000311000100240B7
:10198C000000014000080140000401400AB101615F
:10199C007047090401617047C36801EA030221EA38
:1019AC00030141EA024101617047000008B5054B93
:1019BC005B69034200D108BD024B5861024B98474A
:1019CC00F9E700BF0004014091030008074AD368FF
:1019DC0023F4E0631B041B0C000200F4E0600343DF
:1019EC0043F0BF6343F40033D360704700ED00E075
:1019FC0000B5194BDB68C3F30223C3F1070CBCF130
:101A0C00040F28BF4FF0040C03F1040EBEF1060FB7
:101A1C0018D9033B4FF0FF3E0EFA0CFC21EA0C01E7
:101A2C0099400EFA03F322EA0303194300280BDB57
:101A3C000901C9B200F1604000F5614080F8001363
:101A4C005DF804FB0023E5E700F00F000901C9B2C3
:101A5C00024B1954F4E700BF00ED00E014ED00E078
:101A6C00002807DB00F01F02400901239340024AC3
:101A7C0042F82030704700BF00E100E00138B0F1BF
:101A8C00807F0BD24FF0E0235861054AF02182F899
:101A9C0023100020986107221A61704701207047BB
:101AAC0000ED00E07047000000B58BB000230693FA
:101ABC00079308930993049305930093019302935E
:101ACC0003932048204A026040F2E7324260836070
:101ADC004F22C2600361436183611C4B984708BB72
:101AEC004FF48053069306A91648194B9847E0B952
:101AFC001448184B9847D8B900230493059304A9AC
:101B0C001048154B9847B0B900220092012301935D
:101B1C000292039269460B48104B984770B90BB070
:101B2C005DF804FB0E4B9847DAE70D4B9847DFE75F
:101B3C000B4B9847E0E70A4B9847E5E7084B98476B
:101B4C00EDE700BF54000020002C0140B109000853
:101B5C00C50C0008710A000839100008E90B0008D0
:101B6C00F901000830B589B000230493059306935E
:101B7C0007930368214A934204D0214A93422AD006
:101B8C0009B030BD1F4B9A6942F400629A619A69A0
:101B9C0002F400620192019A9A6942F004029A617D
:101BAC009B6903F004030293029B4FF4807304932C
:101BBC0004A91548154B9847002211461920144DBD
:101BCC00A8471920134CA047002211461B20A847F8
:101BDC001B20A047D4E70B4BDA6942F00202DA6112
:101BEC00DB6903F002030393039B002211461D20C3
:101BFC00074B98471D20074B9847C1E7002C014025
:101C0C000004004000100240000801407917000851
:101C1C00FD1900086D1A000800B587B00023029367
:101C2C0003930493059302680D4B9A4202D007B0BC
:101C3C005DF804FB03F503339A6942F004029A61E0
:101C4C009B6903F004030193019B4023029302233D
:101C5C000393059302A90348034B9847E7E700BF9A
:101C6C0000040040000801407917000800B58FB04F
:101C7C0000230A930B930C930D93089309930193F0
:101C8C000293039304930593069307932248234AE4
:101C9C00026040F2E7324260836043F67F62C260CA
:101CAC00036183611E4B9847002826D14FF4805363
:101CBC000A930AA918481B4B984708BB16481A4B9D
:101CCC00984700BB00230893099308A91248174BA7
:101CDC009847D8B93023019340F69F7302930022A2
:101CEC000392059201A90C48114B984788B90A48F0
:101CFC00104B98470FB05DF804FB0F4B9847D5E796
:101D0C000D4B9847DAE70C4B9847DBE70A4B9847A3
:101D1C00E0E7094B9847EAE79C00002000040040EC
:101D2C00B1090008C50C0008110A00083910000898
:101D3C00350B0008251C0008F901000810B5064CED
:101D4C002068064B984700212068054B9847054BA7
:101D5C005A78054BDA6010BD0C0000204D070008C6
:101D6C00ED0E000810000020001001400268384BF6
:101D7C001B681B689A4200D0704710B4354A136830
:101D8C0001331360642B29D033490B7801335A4249
:101D9C0003F0030302F0030258BF5342DBB20B7093
:101DAC002E4AD16821F47061D160D16821F0FF0115
:101DBC00D1602B49C85CC0B2D1682A4C205C01436D
:101DCC00D160D1680833012000FA03F30B43D360D0
:101DDC00254A13880344138010BC70471346002215
:101DEC001A60224A1368013313603C2B22D0204B1B
:101DFC001B78002BC8D11F4B1A681F4BA3FB020189
:101E0C00C808C1F3C70416490C7000EB8000A2EBA4
:101E1C004002D2B24A70154A1268A3FB0203D808DA
:101E2C00C3F3C7038B7000EB8000A2EB4002D2B26D
:101E3C00CA70A9E7134600221A600E4A13680133D0
:101E4C0013603C2BD3D1134600221A60CFE700BF9E
:101E5C000C000020E8000020F400002000100140DD
:101E6C00E4000020100000203A000020F0000020C8
:101E7C004D000020EC000020CDCCCCCC002103E0A8
:101E8C000B4B5B58435004310A480B4B42189A4297
:101E9C00F6D30A4A02E0002342F8043B084B9A426C
:101EAC00F9D3FFF7FFFD00F00FF8FEF771F970475B
:101EBC00701F0008000000201C0000201C000020E7
:101ECC00F8000020FEE7000070B500260C4D0D4C0C
:101EDC00641BA410A64209D100F022F800260A4D7A
:101EEC000A4C641BA410A64205D170BD55F8043BE6
:101EFC0098470136EEE755F8043B98470136F2E770
:101F0C00681F0008681F0008681F00086C1F000885
:101F1C0003460244934200D1704703F8011BF9E7D2
:101F2C00F8B500BFF8BC08BC9E467047F8B500BFBA
:081F3C00F8BC08BC9E4670478A
:101F440002030405060708090A0B0C0D0E0F1010F6
:101F54000000000000000000000000000102030473
:041F6400060708095B
:041F6800310100083B
:041F6C000D0100085B
:101F700001000000100000000024F40054000020C4
:0C1F800081CF9286CCA4A08F808400004A
:0400000508001E8948
:00000001FF
